{
  "_format": "hh3-artifact-1",
  "contractName": "ERC20Indexer",
  "sourceName": "contracts/standards/ERC20/ERC20Indexer.sol",
  "abi": [
    {
      "inputs": [],
      "stateMutability": "nonpayable",
      "type": "constructor"
    },
    {
      "inputs": [
        {
          "internalType": "address",
          "name": "target",
          "type": "address"
        }
      ],
      "name": "AddressEmptyCode",
      "type": "error"
    },
    {
      "inputs": [
        {
          "internalType": "address",
          "name": "implementation",
          "type": "address"
        }
      ],
      "name": "ERC1967InvalidImplementation",
      "type": "error"
    },
    {
      "inputs": [],
      "name": "ERC1967NonPayable",
      "type": "error"
    },
    {
      "inputs": [],
      "name": "FailedCall",
      "type": "error"
    },
    {
      "inputs": [],
      "name": "InvalidInitialization",
      "type": "error"
    },
    {
      "inputs": [],
      "name": "NotInitializing",
      "type": "error"
    },
    {
      "inputs": [
        {
          "internalType": "address",
          "name": "owner",
          "type": "address"
        }
      ],
      "name": "OwnableInvalidOwner",
      "type": "error"
    },
    {
      "inputs": [
        {
          "internalType": "address",
          "name": "account",
          "type": "address"
        }
      ],
      "name": "OwnableUnauthorizedAccount",
      "type": "error"
    },
    {
      "inputs": [],
      "name": "UUPSUnauthorizedCallContext",
      "type": "error"
    },
    {
      "inputs": [
        {
          "internalType": "bytes32",
          "name": "slot",
          "type": "bytes32"
        }
      ],
      "name": "UUPSUnsupportedProxiableUUID",
      "type": "error"
    },
    {
      "anonymous": false,
      "inputs": [
        {
          "indexed": false,
          "internalType": "uint64",
          "name": "version",
          "type": "uint64"
        }
      ],
      "name": "Initialized",
      "type": "event"
    },
    {
      "anonymous": false,
      "inputs": [
        {
          "indexed": true,
          "internalType": "address",
          "name": "previousOwner",
          "type": "address"
        },
        {
          "indexed": true,
          "internalType": "address",
          "name": "newOwner",
          "type": "address"
        }
      ],
      "name": "OwnershipTransferred",
      "type": "event"
    },
    {
      "anonymous": false,
      "inputs": [
        {
          "indexed": true,
          "internalType": "address",
          "name": "implementation",
          "type": "address"
        }
      ],
      "name": "Upgraded",
      "type": "event"
    },
    {
      "inputs": [],
      "name": "UPGRADE_INTERFACE_VERSION",
      "outputs": [
        {
          "internalType": "string",
          "name": "",
          "type": "string"
        }
      ],
      "stateMutability": "view",
      "type": "function"
    },
    {
      "inputs": [
        {
          "internalType": "address",
          "name": "token",
          "type": "address"
        },
        {
          "internalType": "address",
          "name": "tokenOwner",
          "type": "address"
        },
        {
          "internalType": "address",
          "name": "spender",
          "type": "address"
        }
      ],
      "name": "allowance",
      "outputs": [
        {
          "internalType": "uint256",
          "name": "",
          "type": "uint256"
        }
      ],
      "stateMutability": "view",
      "type": "function"
    },
    {
      "inputs": [
        {
          "internalType": "address",
          "name": "token",
          "type": "address"
        },
        {
          "internalType": "address",
          "name": "account",
          "type": "address"
        }
      ],
      "name": "balanceOf",
      "outputs": [
        {
          "internalType": "uint256",
          "name": "",
          "type": "uint256"
        }
      ],
      "stateMutability": "view",
      "type": "function"
    },
    {
      "inputs": [
        {
          "internalType": "address",
          "name": "token",
          "type": "address"
        }
      ],
      "name": "decimals",
      "outputs": [
        {
          "internalType": "uint8",
          "name": "",
          "type": "uint8"
        }
      ],
      "stateMutability": "view",
      "type": "function"
    },
    {
      "inputs": [
        {
          "internalType": "address",
          "name": "token",
          "type": "address"
        },
        {
          "internalType": "address",
          "name": "tokenOwner",
          "type": "address"
        },
        {
          "internalType": "address",
          "name": "spender",
          "type": "address"
        }
      ],
      "name": "get",
      "outputs": [
        {
          "internalType": "string",
          "name": "n",
          "type": "string"
        },
        {
          "internalType": "string",
          "name": "s",
          "type": "string"
        },
        {
          "internalType": "uint8",
          "name": "d",
          "type": "uint8"
        },
        {
          "internalType": "uint256",
          "name": "ts",
          "type": "uint256"
        },
        {
          "internalType": "uint256",
          "name": "bal",
          "type": "uint256"
        },
        {
          "internalType": "uint256",
          "name": "alw",
          "type": "uint256"
        }
      ],
      "stateMutability": "view",
      "type": "function"
    },
    {
      "inputs": [
        {
          "internalType": "address[]",
          "name": "tokens",
          "type": "address[]"
        },
        {
          "internalType": "address",
          "name": "tokenOwner",
          "type": "address"
        },
        {
          "internalType": "address",
          "name": "spender",
          "type": "address"
        }
      ],
      "name": "getBatch",
      "outputs": [
        {
          "internalType": "string[]",
          "name": "names",
          "type": "string[]"
        },
        {
          "internalType": "string[]",
          "name": "symbols",
          "type": "string[]"
        },
        {
          "internalType": "uint8[]",
          "name": "decimalsList",
          "type": "uint8[]"
        },
        {
          "internalType": "uint256[]",
          "name": "totalSupplies",
          "type": "uint256[]"
        },
        {
          "internalType": "uint256[]",
          "name": "balances",
          "type": "uint256[]"
        },
        {
          "internalType": "uint256[]",
          "name": "allowances",
          "type": "uint256[]"
        }
      ],
      "stateMutability": "view",
      "type": "function"
    },
    {
      "inputs": [
        {
          "internalType": "address",
          "name": "initialOwner",
          "type": "address"
        }
      ],
      "name": "initialize",
      "outputs": [],
      "stateMutability": "nonpayable",
      "type": "function"
    },
    {
      "inputs": [
        {
          "internalType": "address",
          "name": "token",
          "type": "address"
        }
      ],
      "name": "name",
      "outputs": [
        {
          "internalType": "string",
          "name": "",
          "type": "string"
        }
      ],
      "stateMutability": "view",
      "type": "function"
    },
    {
      "inputs": [],
      "name": "owner",
      "outputs": [
        {
          "internalType": "address",
          "name": "",
          "type": "address"
        }
      ],
      "stateMutability": "view",
      "type": "function"
    },
    {
      "inputs": [],
      "name": "proxiableUUID",
      "outputs": [
        {
          "internalType": "bytes32",
          "name": "",
          "type": "bytes32"
        }
      ],
      "stateMutability": "view",
      "type": "function"
    },
    {
      "inputs": [],
      "name": "renounceOwnership",
      "outputs": [],
      "stateMutability": "nonpayable",
      "type": "function"
    },
    {
      "inputs": [
        {
          "internalType": "address",
          "name": "token",
          "type": "address"
        }
      ],
      "name": "symbol",
      "outputs": [
        {
          "internalType": "string",
          "name": "",
          "type": "string"
        }
      ],
      "stateMutability": "view",
      "type": "function"
    },
    {
      "inputs": [
        {
          "internalType": "address",
          "name": "token",
          "type": "address"
        }
      ],
      "name": "totalSupply",
      "outputs": [
        {
          "internalType": "uint256",
          "name": "",
          "type": "uint256"
        }
      ],
      "stateMutability": "view",
      "type": "function"
    },
    {
      "inputs": [
        {
          "internalType": "address",
          "name": "newOwner",
          "type": "address"
        }
      ],
      "name": "transferOwnership",
      "outputs": [],
      "stateMutability": "nonpayable",
      "type": "function"
    },
    {
      "inputs": [
        {
          "internalType": "address",
          "name": "newImplementation",
          "type": "address"
        },
        {
          "internalType": "bytes",
          "name": "data",
          "type": "bytes"
        }
      ],
      "name": "upgradeToAndCall",
      "outputs": [],
      "stateMutability": "payable",
      "type": "function"
    }
  ],
  "bytecode": "0x60a080604052346100c257306080525f51602061107c5f395f51905f525460ff8160401c166100b3576002600160401b03196001600160401b03821601610060575b604051610fb590816100c7823960805181818161063a015261070a0152f35b6001600160401b0319166001600160401b039081175f51602061107c5f395f51905f525581527fc7f505b2f371ae2175ee4913f4499e1f2633a7b5936321eed1cdaeb6115181d290602090a15f80610041565b63f92ee8a960e01b5f5260045ffd5b5f80fdfe60806040526004361015610011575f80fd5b5f3560e01c806301984892146109695780632d618a1a146108bf5780634f1ef2861461068e57806352d1902d14610628578063715018a6146105c15780638da5cb5b1461058d578063927da105146105595780639eb35ca814610345578063a86e35761461030d578063ad3cb1cc146102c2578063c4d66de814610172578063d449a83214610144578063e4dc2aa414610121578063f2fde38b146100f65763f7888aec146100be575f80fd5b346100f25760403660031901126100f25760206100ea6100dc61098d565b6100e46109a3565b90610de4565b604051908152f35b5f80fd5b346100f25760203660031901126100f25761011f61011261098d565b61011a610e63565b610b8b565b005b346100f25760203660031901126100f25760206100ea61013f61098d565b610d7b565b346100f25760203660031901126100f257602061016761016261098d565b610d07565b60ff60405191168152f35b346100f25760203660031901126100f25761018b61098d565b5f516020610f605f395f51905f525460ff8160401c16159167ffffffffffffffff8216801590816102ba575b60011490816102b0575b1590816102a7575b506102985767ffffffffffffffff1982166001175f516020610f605f395f51905f5255610207918361026c575b506101ff610e96565b61011a610e96565b61020f610e96565b61021557005b68ff0000000000000000195f516020610f605f395f51905f5254165f516020610f605f395f51905f52557fc7f505b2f371ae2175ee4913f4499e1f2633a7b5936321eed1cdaeb6115181d2602060405160018152a1005b68ffffffffffffffffff191668010000000000000001175f516020610f605f395f51905f5255836101f6565b63f92ee8a960e01b5f5260045ffd5b905015846101c9565b303b1591506101c1565b8491506101b7565b346100f2575f3660031901126100f2576103096040516102e36040826109f3565b60058152640352e302e360dc1b60208201526040519182916020835260208301906109cf565b0390f35b346100f25760203660031901126100f25761030961033161032c61098d565b610cca565b6040519182916020835260208301906109cf565b346100f25760603660031901126100f25760043567ffffffffffffffff81116100f257366023820112156100f257806004013567ffffffffffffffff81116100f2573660248260051b840101116100f25761039e6109a3565b6103a66109b9565b6103af83610ae8565b6103b884610ae8565b906103c285610ad0565b926103d060405194856109f3565b8584526103dc86610ad0565b602085019590601f19013687376103f287610b31565b976103fc88610b31565b9061040689610b31565b975f5b8a8110156104c057600581901b830160240135906001600160a01b03821682036100f2576104af87878f946001958e6104678f8f9061045d8a809361044d89610c5f565b6104578383610b63565b52610b63565b5061044d86610cca565b5060ff61047d8861047786610d07565b93610b63565b911690526104948661048e84610d7b565b92610b63565b5261049f8282610de4565b6104a9868b610b63565b52610e20565b6104b9828d610b63565b5201610409565b508589848d8b60206104ee8d6104e16040519860c08a5260c08a0190610a45565b90888203848a0152610a45565b91868303604088015251918281520195905f5b81811061054057868061030988610532896105248e8b8782036060890152610a9d565b908582036080870152610a9d565b9083820360a0850152610a9d565b825160ff16885260209788019790920191600101610501565b346100f25760603660031901126100f25760206100ea61057761098d565b61057f6109a3565b6105876109b9565b91610e20565b346100f2575f3660031901126100f2575f516020610f205f395f51905f52546040516001600160a01b039091168152602090f35b346100f2575f3660031901126100f2576105d9610e63565b5f516020610f205f395f51905f5280546001600160a01b031981169091555f906001600160a01b03167f8be0079c531659141344cd1fd0a4f28419497f9722a3daafe3b4186f6b6457e08280a3005b346100f2575f3660031901126100f2577f00000000000000000000000000000000000000000000000000000000000000006001600160a01b0316300361067f5760206040515f516020610f405f395f51905f528152f35b63703e46dd60e11b5f5260045ffd5b60403660031901126100f2576106a261098d565b6024359067ffffffffffffffff82116100f257366023830112156100f2578160040135906106cf82610a29565b916106dd60405193846109f3565b808352602083019336602483830101116100f257815f926024602093018737840101526001600160a01b037f00000000000000000000000000000000000000000000000000000000000000001630811490811561089d575b5061067f57610742610e63565b6040516352d1902d60e01b81526001600160a01b0382169390602081600481885afa5f9181610869575b506107845784634c9c8ce360e01b5f5260045260245ffd5b805f516020610f405f395f51905f528692036108575750823b15610845575f516020610f405f395f51905f5280546001600160a01b031916821790557fbc7cd75a20ee27fd9adebab32041f755214dbc6bffa90cc0225b39da2e5c2d3b5f80a282511561082c575f809161011f945190845af43d15610824573d9161080883610a29565b9261081660405194856109f3565b83523d5f602085013e610ec1565b606091610ec1565b5050503461083657005b63b398979f60e01b5f5260045ffd5b634c9c8ce360e01b5f5260045260245ffd5b632a87526960e21b5f5260045260245ffd5b9091506020813d602011610895575b81610885602093836109f3565b810103126100f25751908661076c565b3d9150610878565b5f516020610f405f395f51905f52546001600160a01b03161415905084610735565b346100f25760603660031901126100f2576109416108db61098d565b6108e36109a3565b6108eb6109b9565b906108f583610c5f565b926108ff81610cca565b9160ff61094f61092c61091185610d07565b9661091b86610d7b565b946109268188610de4565b96610e20565b9460405198899860c08a5260c08a01906109cf565b9088820360208a01526109cf565b941660408601526060850152608084015260a08301520390f35b346100f25760203660031901126100f25761030961033161098861098d565b610c5f565b600435906001600160a01b03821682036100f257565b602435906001600160a01b03821682036100f257565b604435906001600160a01b03821682036100f257565b805180835260209291819084018484015e5f828201840152601f01601f1916010190565b90601f8019910116810190811067ffffffffffffffff821117610a1557604052565b634e487b7160e01b5f52604160045260245ffd5b67ffffffffffffffff8111610a1557601f01601f191660200190565b9080602083519182815201916020808360051b8301019401925f915b838310610a7057505050505090565b9091929394602080610a8e600193601f1986820301875289516109cf565b97019301930191939290610a61565b90602080835192838152019201905f5b818110610aba5750505090565b8251845260209384019390920191600101610aad565b67ffffffffffffffff8111610a155760051b60200190565b90610af282610ad0565b610aff60405191826109f3565b8281528092610b10601f1991610ad0565b01905f5b828110610b2057505050565b806060602080938501015201610b14565b90610b3b82610ad0565b610b4860405191826109f3565b8281528092610b59601f1991610ad0565b0190602036910137565b8051821015610b775760209160051b010190565b634e487b7160e01b5f52603260045260245ffd5b6001600160a01b03168015610be9575f516020610f205f395f51905f5280546001600160a01b0319811683179091556001600160a01b03167f8be0079c531659141344cd1fd0a4f28419497f9722a3daafe3b4186f6b6457e05f80a3565b631e4fbdf760e01b5f525f60045260245ffd5b6020818303126100f25780519067ffffffffffffffff82116100f2570181601f820112156100f257805190610c3082610a29565b92610c3e60405194856109f3565b828452602083830101116100f257815f9260208093018386015e8301015290565b6040516306fdde0360e01b8152905f90829060049082906001600160a01b03165afa5f9181610ca6575b50610ca35750604051610c9d6020826109f3565b5f815290565b90565b610cc39192503d805f833e610cbb81836109f3565b810190610bfc565b905f610c89565b6040516395d89b4160e01b8152905f90829060049082906001600160a01b03165afa5f9181610ca65750610ca35750604051610c9d6020826109f3565b60405163313ce56760e01b815290602090829060049082906001600160a01b03165afa5f9181610d3d575b50610ca35750601290565b9091506020813d602011610d73575b81610d59602093836109f3565b810103126100f2575160ff811681036100f257905f610d32565b3d9150610d4c565b6040516318160ddd60e01b815290602090829060049082906001600160a01b03165afa5f9181610db0575b50610ca357505f90565b9091506020813d602011610ddc575b81610dcc602093836109f3565b810103126100f25751905f610da6565b3d9150610dbf565b6040516370a0823160e01b81526001600160a01b0392831660048201529160209183916024918391165afa5f9181610db05750610ca357505f90565b604051636eb1769f60e11b81526001600160a01b039283166004820152928216602484015260209183916044918391165afa5f9181610db05750610ca357505f90565b5f516020610f205f395f51905f52546001600160a01b03163303610e8357565b63118cdaa760e01b5f523360045260245ffd5b60ff5f516020610f605f395f51905f525460401c1615610eb257565b631afcd79f60e31b5f5260045ffd5b90610ee55750805115610ed657602081519101fd5b63d6bda27560e01b5f5260045ffd5b81511580610f16575b610ef6575090565b639996b31560e01b5f9081526001600160a01b0391909116600452602490fd5b50803b15610eee56fe9016d09d72d40fdae2fd8ceac6b6234c7706214fd39c1cd1e609a0528c199300360894a13ba1a3210667c828492db98dca3e2076cc3735a920a3ca505d382bbcf0c57e16840df040f15088dc2f81fe391c3923bec73e23a9662efc9c229c6a00a26469706673582212200ed223f96fae334838fa11e5cbda6f34a2eb741ce4b6e2f6bb4fd32a851532b764736f6c634300081c0033f0c57e16840df040f15088dc2f81fe391c3923bec73e23a9662efc9c229c6a00",
  "linkReferences": {},
  "deployedLinkReferences": {},
  "immutableReferences": {
    "482": [
      {
        "length": 32,
        "start": 1594
      },
      {
        "length": 32,
        "start": 1802
      }
    ]
  },
  "inputSourceName": "project/contracts/standards/ERC20/ERC20Indexer.sol",
  "buildInfoId": "solc-0_8_28-744880db58335b10ef7c94e4b1ffa0220b22bef9"
}