{
  "_format": "hh3-artifact-1",
  "contractName": "AddressIndexer",
  "sourceName": "contracts/standards/Account/AddressIndexer.sol",
  "abi": [
    {
      "inputs": [],
      "stateMutability": "nonpayable",
      "type": "constructor"
    },
    {
      "inputs": [
        {
          "internalType": "address",
          "name": "target",
          "type": "address"
        }
      ],
      "name": "AddressEmptyCode",
      "type": "error"
    },
    {
      "inputs": [
        {
          "internalType": "address",
          "name": "implementation",
          "type": "address"
        }
      ],
      "name": "ERC1967InvalidImplementation",
      "type": "error"
    },
    {
      "inputs": [],
      "name": "ERC1967NonPayable",
      "type": "error"
    },
    {
      "inputs": [],
      "name": "FailedCall",
      "type": "error"
    },
    {
      "inputs": [],
      "name": "InvalidInitialization",
      "type": "error"
    },
    {
      "inputs": [],
      "name": "NotInitializing",
      "type": "error"
    },
    {
      "inputs": [
        {
          "internalType": "address",
          "name": "owner",
          "type": "address"
        }
      ],
      "name": "OwnableInvalidOwner",
      "type": "error"
    },
    {
      "inputs": [
        {
          "internalType": "address",
          "name": "account",
          "type": "address"
        }
      ],
      "name": "OwnableUnauthorizedAccount",
      "type": "error"
    },
    {
      "inputs": [],
      "name": "UUPSUnauthorizedCallContext",
      "type": "error"
    },
    {
      "inputs": [
        {
          "internalType": "bytes32",
          "name": "slot",
          "type": "bytes32"
        }
      ],
      "name": "UUPSUnsupportedProxiableUUID",
      "type": "error"
    },
    {
      "anonymous": false,
      "inputs": [
        {
          "indexed": false,
          "internalType": "uint64",
          "name": "version",
          "type": "uint64"
        }
      ],
      "name": "Initialized",
      "type": "event"
    },
    {
      "anonymous": false,
      "inputs": [
        {
          "indexed": true,
          "internalType": "address",
          "name": "previousOwner",
          "type": "address"
        },
        {
          "indexed": true,
          "internalType": "address",
          "name": "newOwner",
          "type": "address"
        }
      ],
      "name": "OwnershipTransferred",
      "type": "event"
    },
    {
      "anonymous": false,
      "inputs": [
        {
          "indexed": true,
          "internalType": "address",
          "name": "implementation",
          "type": "address"
        }
      ],
      "name": "Upgraded",
      "type": "event"
    },
    {
      "inputs": [],
      "name": "UPGRADE_INTERFACE_VERSION",
      "outputs": [
        {
          "internalType": "string",
          "name": "",
          "type": "string"
        }
      ],
      "stateMutability": "view",
      "type": "function"
    },
    {
      "inputs": [
        {
          "internalType": "address",
          "name": "account",
          "type": "address"
        }
      ],
      "name": "balance",
      "outputs": [
        {
          "internalType": "uint256",
          "name": "",
          "type": "uint256"
        }
      ],
      "stateMutability": "view",
      "type": "function"
    },
    {
      "inputs": [
        {
          "internalType": "address",
          "name": "account",
          "type": "address"
        }
      ],
      "name": "codeHash",
      "outputs": [
        {
          "internalType": "bytes32",
          "name": "",
          "type": "bytes32"
        }
      ],
      "stateMutability": "view",
      "type": "function"
    },
    {
      "inputs": [
        {
          "internalType": "address",
          "name": "account",
          "type": "address"
        }
      ],
      "name": "get",
      "outputs": [
        {
          "internalType": "uint256",
          "name": "bal",
          "type": "uint256"
        },
        {
          "internalType": "bool",
          "name": "isContract",
          "type": "bool"
        },
        {
          "internalType": "bytes32",
          "name": "codehash",
          "type": "bytes32"
        }
      ],
      "stateMutability": "view",
      "type": "function"
    },
    {
      "inputs": [
        {
          "internalType": "address[]",
          "name": "accounts",
          "type": "address[]"
        }
      ],
      "name": "getBatch",
      "outputs": [
        {
          "internalType": "uint256[]",
          "name": "balances",
          "type": "uint256[]"
        },
        {
          "internalType": "bool[]",
          "name": "isContracts",
          "type": "bool[]"
        },
        {
          "internalType": "bytes32[]",
          "name": "codehashes",
          "type": "bytes32[]"
        }
      ],
      "stateMutability": "view",
      "type": "function"
    },
    {
      "inputs": [
        {
          "internalType": "address",
          "name": "initialOwner",
          "type": "address"
        }
      ],
      "name": "initialize",
      "outputs": [],
      "stateMutability": "nonpayable",
      "type": "function"
    },
    {
      "inputs": [
        {
          "internalType": "address",
          "name": "account",
          "type": "address"
        }
      ],
      "name": "isContractAddress",
      "outputs": [
        {
          "internalType": "bool",
          "name": "",
          "type": "bool"
        }
      ],
      "stateMutability": "view",
      "type": "function"
    },
    {
      "inputs": [],
      "name": "owner",
      "outputs": [
        {
          "internalType": "address",
          "name": "",
          "type": "address"
        }
      ],
      "stateMutability": "view",
      "type": "function"
    },
    {
      "inputs": [],
      "name": "proxiableUUID",
      "outputs": [
        {
          "internalType": "bytes32",
          "name": "",
          "type": "bytes32"
        }
      ],
      "stateMutability": "view",
      "type": "function"
    },
    {
      "inputs": [],
      "name": "renounceOwnership",
      "outputs": [],
      "stateMutability": "nonpayable",
      "type": "function"
    },
    {
      "inputs": [
        {
          "internalType": "address",
          "name": "newOwner",
          "type": "address"
        }
      ],
      "name": "transferOwnership",
      "outputs": [],
      "stateMutability": "nonpayable",
      "type": "function"
    },
    {
      "inputs": [
        {
          "internalType": "address",
          "name": "newImplementation",
          "type": "address"
        },
        {
          "internalType": "bytes",
          "name": "data",
          "type": "bytes"
        }
      ],
      "name": "upgradeToAndCall",
      "outputs": [],
      "stateMutability": "payable",
      "type": "function"
    }
  ],
  "bytecode": "0x60a080604052346100c257306080525f516020610b715f395f51905f525460ff8160401c166100b3576002600160401b03196001600160401b03821601610060575b604051610aaa90816100c7823960805181818161059901526106690152f35b6001600160401b0319166001600160401b039081175f516020610b715f395f51905f525581527fc7f505b2f371ae2175ee4913f4499e1f2633a7b5936321eed1cdaeb6115181d290602090a15f80610041565b63f92ee8a960e01b5f5260045ffd5b5f80fdfe6080806040526004361015610012575f80fd5b5f3560e01c9081633dc448271461081e575080634f1ef286146105ed57806352d1902d14610587578063715018a6146105205780638da5cb5b146104ec5780638ed9606a146104c6578063934b9808146102d5578063ad3cb1cc14610277578063c2bc2efc14610243578063c4d66de8146100f3578063e3d670d7146100cf5763f2fde38b146100a0575f80fd5b346100cb5760203660031901126100cb576100c96100bc61083f565b6100c4610958565b6108e7565b005b5f80fd5b346100cb5760203660031901126100cb5760206100ea61083f565b31604051908152f35b346100cb5760203660031901126100cb5761010c61083f565b5f516020610a555f395f51905f525460ff8160401c16159167ffffffffffffffff82168015908161023b575b6001149081610231575b159081610228575b506102195767ffffffffffffffff1982166001175f516020610a555f395f51905f525561018891836101ed575b5061018061098b565b6100c461098b565b61019061098b565b61019657005b68ff0000000000000000195f516020610a555f395f51905f5254165f516020610a555f395f51905f52557fc7f505b2f371ae2175ee4913f4499e1f2633a7b5936321eed1cdaeb6115181d2602060405160018152a1005b68ffffffffffffffffff191668010000000000000001175f516020610a555f395f51905f525583610177565b63f92ee8a960e01b5f5260045ffd5b9050158461014a565b303b159150610142565b849150610138565b346100cb5760203660031901126100cb57606061025e61083f565b6040805182318152823b15156020820152913f90820152f35b346100cb575f3660031901126100cb5760408051906102968183610855565b600582526020820191640352e302e360dc1b83528151928391602083525180918160208501528484015e5f828201840152601f01601f19168101030190f35b346100cb5760203660031901126100cb5760043567ffffffffffffffff81116100cb57366023820112156100cb57806004013567ffffffffffffffff81116100cb573660248260051b840101116100cb5761032f816108a7565b9161033d6040519384610855565b818352610349826108a7565b602084019190601f190136833761035f836108a7565b9061036d6040519283610855565b838252610379846108a7565b602083019390601f190136853761038f856108a7565b9361039d6040519586610855565b8585526103a9866108a7565b602086019290601f19013684375f5b8781101561040d57600581901b850160240135906001600160a01b03821682036100cb5781600192316103eb838d6108bf565b52803b15156103fa838a6108bf565b523f610406828a6108bf565b52016103b8565b858985858a86604051958695606087019060608852518091526080870192905f5b8181106104ad575050506020908683038288015251918281520192905f5b81811061049257505050602090848303604086015251918281520191905f5b818110610479575050500390f35b825184528594506020938401939092019160010161046b565b8251151585528796506020948501949092019160010161044c565b825185528998506020948501949092019160010161042e565b346100cb5760203660031901126100cb5760206104e161083f565b3b1515604051908152f35b346100cb575f3660031901126100cb575f516020610a155f395f51905f52546040516001600160a01b039091168152602090f35b346100cb575f3660031901126100cb57610538610958565b5f516020610a155f395f51905f5280546001600160a01b031981169091555f906001600160a01b03167f8be0079c531659141344cd1fd0a4f28419497f9722a3daafe3b4186f6b6457e08280a3005b346100cb575f3660031901126100cb577f00000000000000000000000000000000000000000000000000000000000000006001600160a01b031630036105de5760206040515f516020610a355f395f51905f528152f35b63703e46dd60e11b5f5260045ffd5b60403660031901126100cb5761060161083f565b6024359067ffffffffffffffff82116100cb57366023830112156100cb5781600401359061062e8261088b565b9161063c6040519384610855565b808352602083019336602483830101116100cb57815f926024602093018737840101526001600160a01b037f0000000000000000000000000000000000000000000000000000000000000000163081149081156107fc575b506105de576106a1610958565b6040516352d1902d60e01b81526001600160a01b0382169390602081600481885afa5f91816107c8575b506106e35784634c9c8ce360e01b5f5260045260245ffd5b805f516020610a355f395f51905f528692036107b65750823b156107a4575f516020610a355f395f51905f5280546001600160a01b031916821790557fbc7cd75a20ee27fd9adebab32041f755214dbc6bffa90cc0225b39da2e5c2d3b5f80a282511561078b575f80916100c9945190845af43d15610783573d916107678361088b565b926107756040519485610855565b83523d5f602085013e6109b6565b6060916109b6565b5050503461079557005b63b398979f60e01b5f5260045ffd5b634c9c8ce360e01b5f5260045260245ffd5b632a87526960e21b5f5260045260245ffd5b9091506020813d6020116107f4575b816107e460209383610855565b810103126100cb575190866106cb565b3d91506107d7565b5f516020610a355f395f51905f52546001600160a01b03161415905084610694565b346100cb5760203660031901126100cb5760209061083a61083f565b3f8152f35b600435906001600160a01b03821682036100cb57565b90601f8019910116810190811067ffffffffffffffff82111761087757604052565b634e487b7160e01b5f52604160045260245ffd5b67ffffffffffffffff811161087757601f01601f191660200190565b67ffffffffffffffff81116108775760051b60200190565b80518210156108d35760209160051b010190565b634e487b7160e01b5f52603260045260245ffd5b6001600160a01b03168015610945575f516020610a155f395f51905f5280546001600160a01b0319811683179091556001600160a01b03167f8be0079c531659141344cd1fd0a4f28419497f9722a3daafe3b4186f6b6457e05f80a3565b631e4fbdf760e01b5f525f60045260245ffd5b5f516020610a155f395f51905f52546001600160a01b0316330361097857565b63118cdaa760e01b5f523360045260245ffd5b60ff5f516020610a555f395f51905f525460401c16156109a757565b631afcd79f60e31b5f5260045ffd5b906109da57508051156109cb57602081519101fd5b63d6bda27560e01b5f5260045ffd5b81511580610a0b575b6109eb575090565b639996b31560e01b5f9081526001600160a01b0391909116600452602490fd5b50803b156109e356fe9016d09d72d40fdae2fd8ceac6b6234c7706214fd39c1cd1e609a0528c199300360894a13ba1a3210667c828492db98dca3e2076cc3735a920a3ca505d382bbcf0c57e16840df040f15088dc2f81fe391c3923bec73e23a9662efc9c229c6a00a2646970667358221220ecba856990e4e542f2d649f53f49fcb4f901f6eb7a8b081569e349bfddfe416764736f6c634300081c0033f0c57e16840df040f15088dc2f81fe391c3923bec73e23a9662efc9c229c6a00",
  "linkReferences": {},
  "deployedLinkReferences": {},
  "immutableReferences": {
    "482": [
      {
        "length": 32,
        "start": 1433
      },
      {
        "length": 32,
        "start": 1641
      }
    ]
  },
  "inputSourceName": "project/contracts/standards/Account/AddressIndexer.sol",
  "buildInfoId": "solc-0_8_28-500bade1e591ecc986428c61af2654b6eb61c305"
}