{
  "_format": "hh3-artifact-1",
  "contractName": "UniswapV2Indexer",
  "sourceName": "contracts/standards/DEX/UniswapV2Indexer.sol",
  "abi": [
    {
      "inputs": [],
      "stateMutability": "nonpayable",
      "type": "constructor"
    },
    {
      "inputs": [
        {
          "internalType": "address",
          "name": "target",
          "type": "address"
        }
      ],
      "name": "AddressEmptyCode",
      "type": "error"
    },
    {
      "inputs": [
        {
          "internalType": "address",
          "name": "implementation",
          "type": "address"
        }
      ],
      "name": "ERC1967InvalidImplementation",
      "type": "error"
    },
    {
      "inputs": [],
      "name": "ERC1967NonPayable",
      "type": "error"
    },
    {
      "inputs": [],
      "name": "FailedCall",
      "type": "error"
    },
    {
      "inputs": [],
      "name": "InvalidInitialization",
      "type": "error"
    },
    {
      "inputs": [],
      "name": "NotInitializing",
      "type": "error"
    },
    {
      "inputs": [
        {
          "internalType": "address",
          "name": "owner",
          "type": "address"
        }
      ],
      "name": "OwnableInvalidOwner",
      "type": "error"
    },
    {
      "inputs": [
        {
          "internalType": "address",
          "name": "account",
          "type": "address"
        }
      ],
      "name": "OwnableUnauthorizedAccount",
      "type": "error"
    },
    {
      "inputs": [],
      "name": "UUPSUnauthorizedCallContext",
      "type": "error"
    },
    {
      "inputs": [
        {
          "internalType": "bytes32",
          "name": "slot",
          "type": "bytes32"
        }
      ],
      "name": "UUPSUnsupportedProxiableUUID",
      "type": "error"
    },
    {
      "anonymous": false,
      "inputs": [
        {
          "indexed": false,
          "internalType": "uint64",
          "name": "version",
          "type": "uint64"
        }
      ],
      "name": "Initialized",
      "type": "event"
    },
    {
      "anonymous": false,
      "inputs": [
        {
          "indexed": true,
          "internalType": "address",
          "name": "previousOwner",
          "type": "address"
        },
        {
          "indexed": true,
          "internalType": "address",
          "name": "newOwner",
          "type": "address"
        }
      ],
      "name": "OwnershipTransferred",
      "type": "event"
    },
    {
      "anonymous": false,
      "inputs": [
        {
          "indexed": true,
          "internalType": "address",
          "name": "implementation",
          "type": "address"
        }
      ],
      "name": "Upgraded",
      "type": "event"
    },
    {
      "inputs": [],
      "name": "UPGRADE_INTERFACE_VERSION",
      "outputs": [
        {
          "internalType": "string",
          "name": "",
          "type": "string"
        }
      ],
      "stateMutability": "view",
      "type": "function"
    },
    {
      "inputs": [
        {
          "internalType": "address",
          "name": "factory",
          "type": "address"
        },
        {
          "internalType": "address",
          "name": "tokenA",
          "type": "address"
        },
        {
          "internalType": "address",
          "name": "tokenB",
          "type": "address"
        }
      ],
      "name": "findPair",
      "outputs": [
        {
          "internalType": "bool",
          "name": "found",
          "type": "bool"
        },
        {
          "components": [
            {
              "internalType": "address",
              "name": "pair",
              "type": "address"
            },
            {
              "internalType": "address",
              "name": "token0",
              "type": "address"
            },
            {
              "internalType": "address",
              "name": "token1",
              "type": "address"
            },
            {
              "internalType": "uint112",
              "name": "reserve0",
              "type": "uint112"
            },
            {
              "internalType": "uint112",
              "name": "reserve1",
              "type": "uint112"
            },
            {
              "internalType": "uint256",
              "name": "price0",
              "type": "uint256"
            },
            {
              "internalType": "uint256",
              "name": "price1",
              "type": "uint256"
            }
          ],
          "internalType": "struct UniswapV2Indexer.PairView",
          "name": "view_",
          "type": "tuple"
        }
      ],
      "stateMutability": "view",
      "type": "function"
    },
    {
      "inputs": [
        {
          "internalType": "address",
          "name": "factory",
          "type": "address"
        },
        {
          "internalType": "address",
          "name": "token",
          "type": "address"
        },
        {
          "internalType": "address[]",
          "name": "bases",
          "type": "address[]"
        },
        {
          "internalType": "uint256",
          "name": "offset",
          "type": "uint256"
        },
        {
          "internalType": "uint256",
          "name": "limit",
          "type": "uint256"
        }
      ],
      "name": "findPairsForTokenAgainstBases",
      "outputs": [
        {
          "components": [
            {
              "internalType": "address",
              "name": "pair",
              "type": "address"
            },
            {
              "internalType": "address",
              "name": "token0",
              "type": "address"
            },
            {
              "internalType": "address",
              "name": "token1",
              "type": "address"
            },
            {
              "internalType": "uint112",
              "name": "reserve0",
              "type": "uint112"
            },
            {
              "internalType": "uint112",
              "name": "reserve1",
              "type": "uint112"
            },
            {
              "internalType": "uint256",
              "name": "price0",
              "type": "uint256"
            },
            {
              "internalType": "uint256",
              "name": "price1",
              "type": "uint256"
            }
          ],
          "internalType": "struct UniswapV2Indexer.PairView[]",
          "name": "results",
          "type": "tuple[]"
        },
        {
          "internalType": "uint256",
          "name": "nextOffset",
          "type": "uint256"
        }
      ],
      "stateMutability": "view",
      "type": "function"
    },
    {
      "inputs": [
        {
          "internalType": "address",
          "name": "factory",
          "type": "address"
        },
        {
          "internalType": "address",
          "name": "token",
          "type": "address"
        },
        {
          "internalType": "uint256",
          "name": "offset",
          "type": "uint256"
        },
        {
          "internalType": "uint256",
          "name": "limit",
          "type": "uint256"
        }
      ],
      "name": "findPairsForTokenInFactory",
      "outputs": [
        {
          "components": [
            {
              "internalType": "address",
              "name": "pair",
              "type": "address"
            },
            {
              "internalType": "address",
              "name": "token0",
              "type": "address"
            },
            {
              "internalType": "address",
              "name": "token1",
              "type": "address"
            },
            {
              "internalType": "uint112",
              "name": "reserve0",
              "type": "uint112"
            },
            {
              "internalType": "uint112",
              "name": "reserve1",
              "type": "uint112"
            },
            {
              "internalType": "uint256",
              "name": "price0",
              "type": "uint256"
            },
            {
              "internalType": "uint256",
              "name": "price1",
              "type": "uint256"
            }
          ],
          "internalType": "struct UniswapV2Indexer.PairView[]",
          "name": "results",
          "type": "tuple[]"
        },
        {
          "internalType": "uint256",
          "name": "nextOffset",
          "type": "uint256"
        },
        {
          "internalType": "uint256",
          "name": "totalPairs",
          "type": "uint256"
        }
      ],
      "stateMutability": "view",
      "type": "function"
    },
    {
      "inputs": [
        {
          "internalType": "address",
          "name": "initialOwner",
          "type": "address"
        }
      ],
      "name": "initialize",
      "outputs": [],
      "stateMutability": "nonpayable",
      "type": "function"
    },
    {
      "inputs": [],
      "name": "owner",
      "outputs": [
        {
          "internalType": "address",
          "name": "",
          "type": "address"
        }
      ],
      "stateMutability": "view",
      "type": "function"
    },
    {
      "inputs": [],
      "name": "proxiableUUID",
      "outputs": [
        {
          "internalType": "bytes32",
          "name": "",
          "type": "bytes32"
        }
      ],
      "stateMutability": "view",
      "type": "function"
    },
    {
      "inputs": [
        {
          "internalType": "address",
          "name": "factory",
          "type": "address"
        },
        {
          "internalType": "address",
          "name": "token",
          "type": "address"
        },
        {
          "internalType": "address[]",
          "name": "bases",
          "type": "address[]"
        },
        {
          "internalType": "uint256",
          "name": "offset",
          "type": "uint256"
        },
        {
          "internalType": "uint256",
          "name": "limit",
          "type": "uint256"
        }
      ],
      "name": "quoteTokenAgainstBases",
      "outputs": [
        {
          "components": [
            {
              "internalType": "address",
              "name": "base",
              "type": "address"
            },
            {
              "internalType": "address",
              "name": "pair",
              "type": "address"
            },
            {
              "internalType": "uint256",
              "name": "priceTokenInBase",
              "type": "uint256"
            },
            {
              "internalType": "uint256",
              "name": "priceBaseInToken",
              "type": "uint256"
            },
            {
              "internalType": "uint112",
              "name": "reserveToken",
              "type": "uint112"
            },
            {
              "internalType": "uint112",
              "name": "reserveBase",
              "type": "uint112"
            }
          ],
          "internalType": "struct UniswapV2Indexer.BaseQuote[]",
          "name": "quotes",
          "type": "tuple[]"
        },
        {
          "internalType": "uint256",
          "name": "nextOffset",
          "type": "uint256"
        }
      ],
      "stateMutability": "view",
      "type": "function"
    },
    {
      "inputs": [],
      "name": "renounceOwnership",
      "outputs": [],
      "stateMutability": "nonpayable",
      "type": "function"
    },
    {
      "inputs": [
        {
          "internalType": "address",
          "name": "newOwner",
          "type": "address"
        }
      ],
      "name": "transferOwnership",
      "outputs": [],
      "stateMutability": "nonpayable",
      "type": "function"
    },
    {
      "inputs": [
        {
          "internalType": "address",
          "name": "newImplementation",
          "type": "address"
        },
        {
          "internalType": "bytes",
          "name": "data",
          "type": "bytes"
        }
      ],
      "name": "upgradeToAndCall",
      "outputs": [],
      "stateMutability": "payable",
      "type": "function"
    }
  ],
  "bytecode": "0x60a080604052346100c257306080525f5160206118445f395f51905f525460ff8160401c166100b3576002600160401b03196001600160401b03821601610060575b60405161177d90816100c7823960805181818161046801526105380152f35b6001600160401b0319166001600160401b039081175f5160206118445f395f51905f525581527fc7f505b2f371ae2175ee4913f4499e1f2633a7b5936321eed1cdaeb6115181d290602090a15f80610041565b63f92ee8a960e01b5f5260045ffd5b5f80fdfe60806040526004361015610011575f80fd5b5f3560e01c80632685f238146106ed5780634f1ef286146104bc57806352d1902d1461045657806357cfb031146103f9578063715018a6146103925780638da5cb5b1461035e578063ad3cb1cc14610300578063b63c74821461024f578063c420d8a814610211578063c4d66de8146100c15763f2fde38b14610092575f80fd5b346100bd5760203660031901126100bd576100bb6100ae610745565b6100b66115a9565b611192565b005b5f80fd5b346100bd5760203660031901126100bd576100da610745565b5f5160206117285f395f51905f525460ff8160401c16159167ffffffffffffffff821680159081610209575b60011490816101ff575b1590816101f6575b506101e75767ffffffffffffffff1982166001175f5160206117285f395f51905f525561015691836101bb575b5061014e61165e565b6100b661165e565b61015e61165e565b61016457005b68ff0000000000000000195f5160206117285f395f51905f5254165f5160206117285f395f51905f52557fc7f505b2f371ae2175ee4913f4499e1f2633a7b5936321eed1cdaeb6115181d2602060405160018152a1005b68ffffffffffffffffff191668010000000000000001175f5160206117285f395f51905f525583610145565b63f92ee8a960e01b5f5260045ffd5b90501584610118565b303b159150610110565b849150610106565b346100bd5761024561023161022536610887565b94939093929192611013565b6040519283926040845260408401906107dc565b9060208301520390f35b346100bd5761026c61026036610887565b94939093929192610d56565b9060405190604082019260408352815180945260206060840192015f945b80861061029f57505082935060208301520390f35b9092602060c06001926001600160701b0360a088518680831b0381511684528680831b03868201511686850152604081015160408501526060810151606085015282608082015116608085015201511660a08201520194019501949061028a565b346100bd575f3660031901126100bd57604080519061031f8183610849565b600582526020820191640352e302e360dc1b83528151928391602083525180918160208501528484015e5f828201840152601f01601f19168101030190f35b346100bd575f3660031901126100bd575f5160206116e85f395f51905f52546040516001600160a01b039091168152602090f35b346100bd575f3660031901126100bd576103aa6115a9565b5f5160206116e85f395f51905f5280546001600160a01b031981169091555f906001600160a01b03167f8be0079c531659141344cd1fd0a4f28419497f9722a3daafe3b4186f6b6457e08280a3005b346100bd5760603660031901126100bd57610412610745565b61041a61075b565b604435916001600160a01b03831683036100bd57610100926104549261043f92610c04565b60409291925192151583526020830190610771565bf35b346100bd575f3660031901126100bd577f00000000000000000000000000000000000000000000000000000000000000006001600160a01b031630036104ad5760206040515f5160206117085f395f51905f528152f35b63703e46dd60e11b5f5260045ffd5b60403660031901126100bd576104d0610745565b6024359067ffffffffffffffff82116100bd57366023830112156100bd578160040135906104fd8261086b565b9161050b6040519384610849565b808352602083019336602483830101116100bd57815f926024602093018737840101526001600160a01b037f0000000000000000000000000000000000000000000000000000000000000000163081149081156106cb575b506104ad576105706115a9565b6040516352d1902d60e01b81526001600160a01b0382169390602081600481885afa5f9181610697575b506105b25784634c9c8ce360e01b5f5260045260245ffd5b805f5160206117085f395f51905f528692036106855750823b15610673575f5160206117085f395f51905f5280546001600160a01b031916821790557fbc7cd75a20ee27fd9adebab32041f755214dbc6bffa90cc0225b39da2e5c2d3b5f80a282511561065a575f80916100bb945190845af43d15610652573d916106368361086b565b926106446040519485610849565b83523d5f602085013e611689565b606091611689565b5050503461066457005b63b398979f60e01b5f5260045ffd5b634c9c8ce360e01b5f5260045260245ffd5b632a87526960e21b5f5260045260245ffd5b9091506020813d6020116106c3575b816106b360209383610849565b810103126100bd5751908661059a565b3d91506106a6565b5f5160206117085f395f51905f52546001600160a01b03161415905084610563565b346100bd5760803660031901126100bd5761073661072261070c610745565b61071461075b565b906064359160443591610a38565b6040519384936060855260608501906107dc565b91602084015260408301520390f35b600435906001600160a01b03821682036100bd57565b602435906001600160a01b03821682036100bd57565b60c0809160018060a01b03815116845260018060a01b03602082015116602085015260018060a01b0360408201511660408501526001600160701b0360608201511660608501526001600160701b03608082015116608085015260a081015160a08501520151910152565b90602080835192838152019201905f5b8181106107f95750505090565b909192602060e08261080e6001948851610771565b0194019291016107ec565b60e0810190811067ffffffffffffffff82111761083557604052565b634e487b7160e01b5f52604160045260245ffd5b90601f8019910116810190811067ffffffffffffffff82111761083557604052565b67ffffffffffffffff811161083557601f01601f191660200190565b9060a06003198301126100bd576004356001600160a01b03811681036100bd57916024356001600160a01b03811681036100bd579160443567ffffffffffffffff81116100bd57826023820112156100bd5780600401359267ffffffffffffffff84116100bd5760248460051b830101116100bd5760240191906064359060843590565b67ffffffffffffffff81116108355760051b60200190565b6040519061093082610819565b5f60c0838281528260208201528260408201528260608201528260808201528260a08201520152565b60405190610968602083610849565b5f80835282815b82811061097b57505050565b602090610986610923565b8282850101520161096f565b9061099c8261090b565b6109a96040519182610849565b82815280926109ba601f199161090b565b01905f5b8281106109ca57505050565b6020906109d5610923565b828285010152016109be565b919082018092116109ee57565b634e487b7160e01b5f52601160045260245ffd5b5f1981146109ee5760010190565b8051821015610a245760209160051b010190565b634e487b7160e01b5f52603260045260245ffd5b9392919093610a4681611203565b92838310801590610bfc575b610bea57610a6090836109e1565b91838311610be2575b5f95815b848110610b825750610a7e87610992565b9615610b7a575f915b848110610a95575050505091565b610a9f818561128e565b610aa8816112fa565b906001600160a01b0380821691908616828114908115610b67575b50610ad5575b50505050600101610a87565b9183916001600160701b0360019698948184610b02610af6610b5d9a611398565b5094908093869261146a565b96909560405198610b128a610819565b8c8060a01b0316895260208901528a8060a01b0316604088015216606086015216608084015260a083015260c0820152610b4c828c610a10565b52610b57818b610a10565b50610a02565b92905f8080610ac9565b6001600160a01b0385161490505f610ac3565b509193915050565b610b94610b8f828661128e565b6112fa565b6001600160a01b038481169216821491908215610bcf575b5050610bbb575b600101610a6d565b96610bc7600191610a02565b979050610bb3565b6001600160a01b03161490505f80610bac565b839250610a69565b5050925090610bf7610959565b929190565b508015610a52565b91610c1791610c11610923565b93611566565b6001600160a01b038116918215610c995750806001600160701b0380610c3f610c47946112fa565b949093611398565b509190610c568382888861146a565b96909560405198610c668a610819565b89526001600160a01b0390811660208a015216604088015216606086015216608084015260a083015260c0820152600191565b929150505f9190565b6040519060c0820182811067ffffffffffffffff821117610835576040525f60a0838281528260208201528260408201528260608201528260808201520152565b90610ced8261090b565b610cfa6040519182610849565b8281528092610d0b601f199161090b565b01905f5b828110610d1b57505050565b602090610d26610ca2565b82828501015201610d0f565b9190811015610a245760051b0190565b356001600160a01b03811681036100bd5790565b91909392959486841080159061100b575b610fcc57610d7590846109e1565b93868511610fc4575b5f92845b868110610f825750610d9384610ce3565b978415610f795790889392915f965b888110610e00575050505050508103610db9575090565b610dc581949294610ce3565b915f5b828110610dd6575050509190565b80610de360019284610a10565b51610dee8287610a10565b52610df98186610a10565b5001610dc8565b610e19610e14828488999b95969798610d32565b610d42565b610e24818787611566565b926001600160a01b0384168015610f6c57610e4a90610e42866112fa565b929096611398565b50929091610e5a8484848b61146a565b929098610e65610ca2565b6001600160a01b0398891680825260208201949094529790811691908d169081831480610f5a575b15610eeb5750505050926001600160701b03859381610ed694610ed09760019b6040610edd9b015260608801521660808601521660a08401525b80938491610a02565b9c610a10565b528c610a10565b505b01908994939291610da2565b98999798969794966001600160a01b0316149182610f50575b505015610f4157936001600160701b03610ed094818895610ed695610edd99604060019d9c015260608801521660808601521660a0840152610ec7565b50505050975050600190610edf565b1490505f80610f04565b506001600160a01b0381168414610e8d565b5098505060019150610edf565b50505050505090565b6001600160a01b03610fa2610f9b610e14848d89610d32565b8585611566565b16610fb0575b600101610d82565b93610fbc600191610a02565b949050610fa8565b869450610d7e565b50919450505050604051610fe1602082610849565b5f81525f805b818110610ff45750509190565b602090610fff610ca2565b82828601015201610fe7565b508015610d67565b90939192959486831080159061118a575b6111785761103290836109e1565b93868511611170575b5f96835b86811061112e575061105088610992565b9715611126575f935b8681106110695750505050505090565b61108161107a610e1483858a610d32565b8486611566565b6001600160a01b038116908161109c575b5050600101611059565b9561111e916110ba886001600160701b0380610c3f6001989c6112fa565b5091906110c98382888861146a565b969095604051986110d98a610819565b89528b8060a01b031660208901528a8060a01b0316604088015216606086015216608084015260a083015260c0820152611113828d610a10565b52610b57818c610a10565b94905f611092565b505050505090565b6001600160a01b0361114e611147610e1484868b610d32565b8587611566565b1661115c575b60010161103f565b97611168600191610a02565b989050611154565b86945061103b565b505093505050611186610959565b9190565b508015611024565b6001600160a01b031680156111f0575f5160206116e85f395f51905f5280546001600160a01b0319811683179091556001600160a01b03167f8be0079c531659141344cd1fd0a4f28419497f9722a3daafe3b4186f6b6457e05f80a3565b631e4fbdf760e01b5f525f60045260245ffd5b60405163574f2ba360e01b815290602090829060049082906001600160a01b03165afa5f918161123b575b5061123857505f90565b90565b9091506020813d602011611267575b8161125760209383610849565b810103126100bd5751905f61122e565b3d915061124a565b908160209103126100bd57516001600160a01b03811681036100bd5790565b604051631e3dd18b60e01b81526004810192909252602090829060249082906001600160a01b03165afa5f91816112c9575061123857505f90565b6112ec91925060203d6020116112f3575b6112e48183610849565b81019061126f565b905f61122e565b503d6112da565b604051630dfe168160e01b81526001600160a01b03919091169190602081600481865afa5f9181611363575b506113585750600460205f935b60405163d21220a760e01b815292839182905afa5f91816112c9575061123857505f90565b602060049193611333565b61137d91925060203d6020116112f3576112e48183610849565b905f611326565b51906001600160701b03821682036100bd57565b604051630240bc6b60e21b815290606090829060049082906001600160a01b03165afa5f815f935f936113d9575b506113d6575050505f905f905f90565b92565b93509150506060823d606011611431575b816113f760609383610849565b810103126100bd5761140882611384565b91604061141760208301611384565b9101519263ffffffff841684036100bd579092915f6113c6565b3d91506113ea565b818102929181159184041417156109ee57565b8115611456570490565b634e487b7160e01b5f52601260045260245ffd5b929391935f946001600160701b036114a260ff61149b8161149461148e5f9b6115dc565b986115dc565b9716611650565b9516611650565b9116928315928315611512575b6001600160701b031692836114c6575b5050505050565b90919293949550670de0b6b3a76400008502948504670de0b6b3a76400001417156109ee576114fb6115019261150795611439565b92611439565b9061144c565b905f808080806114bf565b96506001600160701b038716670de0b6b3a7640000810290808204670de0b6b3a764000014901517156109ee5761155e611554836001600160701b0393611439565b6115018588611439565b9790506114af565b60405163e6a4390560e01b81526001600160a01b039283166004820152928216602484015260209183916044918391165afa5f91816112c9575061123857505f90565b5f5160206116e85f395f51905f52546001600160a01b031633036115c957565b63118cdaa760e01b5f523360045260245ffd5b60405163313ce56760e01b815290602090829060049082906001600160a01b03165afa5f9181611612575b506112385750601290565b9091506020813d602011611648575b8161162e60209383610849565b810103126100bd575160ff811681036100bd57905f611607565b3d9150611621565b604d81116109ee57600a0a90565b60ff5f5160206117285f395f51905f525460401c161561167a57565b631afcd79f60e31b5f5260045ffd5b906116ad575080511561169e57602081519101fd5b63d6bda27560e01b5f5260045ffd5b815115806116de575b6116be575090565b639996b31560e01b5f9081526001600160a01b0391909116600452602490fd5b50803b156116b656fe9016d09d72d40fdae2fd8ceac6b6234c7706214fd39c1cd1e609a0528c199300360894a13ba1a3210667c828492db98dca3e2076cc3735a920a3ca505d382bbcf0c57e16840df040f15088dc2f81fe391c3923bec73e23a9662efc9c229c6a00a26469706673582212209accdd865415a8f762c9e820b1cd34695d1626533c9cb1c9bfafcc96fde505e164736f6c634300081c0033f0c57e16840df040f15088dc2f81fe391c3923bec73e23a9662efc9c229c6a00",
  "linkReferences": {},
  "deployedLinkReferences": {},
  "immutableReferences": {
    "482": [
      {
        "length": 32,
        "start": 1128
      },
      {
        "length": 32,
        "start": 1336
      }
    ]
  },
  "inputSourceName": "project/contracts/standards/DEX/UniswapV2Indexer.sol",
  "buildInfoId": "solc-0_8_28-b9f02776d79d002c798f2ab4c6d98d5aa4de9983"
}